:1000000045C0000060C000005EC000005CC0000091
:100010005AC0000022C1000037C1000054C00000D7
:1000200052C00000BFC100004EC000004CC0000024
:100030003BC1000048C0000046C0000044C00000B2
:1000400042C0000040C00000D2C200004EC200000A
:100050008CC2000038C0000036C0000034C0000070
:1000600032C0000030C000002EC000002CC00000D4
:100070002AC0000028C00000F3C300006CC30000C9
:10008000ADC3000020C000001EC0000011241FBE30
:10009000CFEFD0E1DEBFCDBF11E0A0E0B1E0E4E9F9
:1000A000FCE000E00BBF02C007900D92AC34B1073A
:1000B000D9F722E0ACE4B1E001C01D92A83BB20741
:1000C000E1F702D0E5C59CCF10924F0110924E018E
:1000D00027D104B600FE06C041E06BE070E083E08B
:1000E00091E068D4A89504B601FE06C041E06BE03B
:1000F00070E08FE091E05ED4A89504B602FE06C0E1
:1001000041E06CE070E08BE191E054D4A89504B636
:1001100003FE06C041E06CE070E088E291E04AD462
:10012000A89504B604FE06C041E067E070E085E3F0
:1001300091E040D4A89541E062E070E08DE391E069
:1001400039D414BE109227028FEF87BB18BA12B8A9
:1001500090E793B92AE22ABF99BF1FBC98E09EBDE1
:100160001DBC1CBC20E830E73BBD2ABD20E127BFF9
:1001700093BF12BE81BF87B7826087BF7894A8956E
:1001800080912702811110C080910F0281110CC053
:100190008091FF01811108C001E021E040E850E0BA
:1001A0006DE089E591E0FED408D4A8958091FF0127
:1001B000882309F43DC080915701882369F010928B
:1001C0002702109257011092010210920002109221
:1001D000FF0110920C02A89580910C02882331F146
:1001E000409155015091560169E571E08DE292E030
:1001F00013D5E0915501F0915601E35DFD4F8091DB
:10020000000190910101A091020180839183A2835A
:10021000EDE2F2E001900020E9F73197BF016D5265
:10022000724020E041E08DE292E077D31092FF012E
:100230004AE061E272E080914C0190914D01F5D469
:1002400041E06BE070E080E491E0B4D341E064E031
:1002500070E081E292E0AED392CF1F920F920FB680
:100260000F9211248F939F9380914C0190914D0197
:10027000019690934D0180934C019F918F910F9027
:100280000FBE0F901F9018951F920F920FB60F92EE
:1002900011248F931DBC1CBC8CE08EBD8F910F90E0
:1002A0000FBE0F901F9018951F920F920FB60F92CE
:1002B00011248F939F930D9909C080914C019091C7
:1002C0004D01019690934D0180934C0188E08EBDC5
:1002D0009F918F910F900FBE0F901F901895A8952A
:1002E00081E081BD08958FEF8ABB8BBB88BB87BB44
:1002F0009FE795BB94BB12BA81BB83B982B9809347
:10030000620080936100E5E6F0E080838093640002
:10031000F0930A02E093090281E080932802089595
:100320008F929F92AF92CF92EF920F93D8DFF89473
:100330001CBE10926D00D7DFA8951F921F92812CD2
:10034000912C0F2EF8EFAF2EF02DC12C0F2EF7E0D1
:10035000EF2EF02D06E020E040E060E080E090E04D
:10036000A2D1789415BE10926A001ABE19BE80E41C
:1003700087BF10927D0078940F900F900F91EF90AF
:10038000CF90AF909F908F90089515BC14BC87E4D8
:1003900083BD8DE085BD87B7806887BF87B78E7FB7
:1003A00087BF08951F920F920FB60F9211242F93BB
:1003B0003F938F939F9314BC80911B02882319F164
:1003C0008091180290911902892BE9F08091E50142
:1003D0009091E60101969093E6018093E5012091CA
:1003E000E5013091E60180911802909119022817D9
:1003F000390748F081E08093E00110921202809367
:10040000DF0110921B02809106028823E9F080919F
:10041000DD019091DE0101969093DE018093DD0174
:100420002091DD013091DE018091F0019091F10188
:100430002817390748F081E0809352011092120288
:100440008093DF011092060280910202882319F145
:100450008091FB019091FC01892BE9F080911502BC
:1004600090911602019690931602809315022091A6
:100470001502309116028091FB019091FC01281722
:10048000390748F081E08093B402109227028093EC
:10049000FF011092020280910B028823E9F0809103
:1004A000E8019091E90101969093E9018093E801B8
:1004B0002091E8013091E9018091AD029091AE0266
:1004C0002817390748F081E0809310021092270224
:1004D0008093FF0110920B029F918F913F912F917A
:1004E0000F900FBE0F901F9018951F920F920FB68E
:1004F0000F9211240BB60F922F933F938F939F93DC
:10050000EF93FF93A8958091240290912502019684
:100510009093250280932402209124023091250299
:100520008091FD019091FE012817390729F49AB1B5
:1005300080E289278AB90CC080912402909125021B
:10054000E091EC01F091ED01E80FF91F80818CB989
:10055000FF91EF919F918F913F912F910F900BBE43
:100560000F900FBE0F901F9018951F920F920FB60D
:100570000F9211240BB60F922F933F938F939F935B
:10058000EF93FF93A895209124023091250280914A
:10059000FD019091FE0128173907E1F481E0809375
:1005A0001C021092DB0180911102882399F0E091E6
:1005B000E101F091E20190818091170280958923F9
:1005C00090910D02992319F09091170201C090E0CB
:1005D000892B8083FF91EF919F918F913F912F9174
:1005E0000F900BBE0F900FBE0F901F9018951F928B
:1005F0000F920FB60F9211240BB60F922F933F93C9
:100600008F939F93EF93FF9381E080930602109264
:10061000DE011092DD01A8958CB1809329028091B2
:100620001202882399F18091EE019091EF01E091FF
:10063000E301F091E401E80FF91F80912902808322
:100640002091EE013091EF018091F4019091F5013C
:100650002817390750F48091EE019091EF0101962F
:100660009093EF018093EE0111C08091F40190917D
:10067000F5019093EF018093EE0181E08093E70113
:10068000109212028093DF0110921B02FF91EF91F2
:100690009F918F913F912F910F900BBE0F900FBEA6
:1006A0000F901F9018958F929F92AF92CF92EF92DA
:1006B0000F93CF93DF93CDB7DEB7ECEDF1E0F0937E
:1006C0001402E093130210920102109200021092A1
:1006D000560110925501E1E0F0E0F093EB01E09358
:1006E000EA01EAE9F0E0108220939B0000939D006C
:1006F000E0929900C0929800A0829092FC018092B2
:10070000FB012B853C853093AE022093AD02109205
:100710000F02308120E223272083009781F09093FD
:10072000B1028093B002FC018291862B808360939A
:1007300020024093580181E08093AF0202C01092E2
:10074000AF0223DEDF91CF910F91EF90CF90AF906A
:100750009F908F9008951F920F920FB60F921124C1
:100760000BB60F922F933F938F939F93EF93FF932B
:10077000A8958091B5029091B60201969093B60229
:100780008093B5022091B5023091B6028091F201BA
:100790009091F3012817390739F4EAE9F0E09081E4
:1007A00080E2892780830DC08091B5029091B602C6
:1007B000E091F901F091FA01E80FF91F808180932F
:1007C0009C00FF91EF919F918F913F912F910F90FE
:1007D0000BBE0F900FBE0F901F9018951F920F9297
:1007E0000FB60F9211240BB60F922F933F938F9356
:1007F0009F93EF93FF93A8952091B5023091B60295
:100800008091F2019091F30128173907E1F481E01A
:100810008093260210920F028091AF02882399F0F4
:10082000E091B002F091B102908180912002809518
:10083000892390915801992319F09091200201C0C9
:1008400090E0892B8083FF91EF919F918F913F9151
:100850002F910F900BBE0F900FBE0F901F90189509
:100860001F920F920FB60F9211240BB60F922F9377
:100870003F938F939F93EF93FF9381E080930B02BD
:100880001092E9011092E801A89580919C00809354
:10089000DC0180912702882399F1809100029091D8
:1008A0000102E0911302F0911402E80FF91F809108
:1008B000DC01808320910002309101028091EA01E5
:1008C0009091EB012817390750F480910002909124
:1008D00001020196909301028093000211C0809161
:1008E000EA019091EB01909301028093000281E074
:1008F00080935701109227028093FF011092020209
:10090000FF91EF919F918F913F912F910F900BBE8F
:100910000F900FBE0F901F901895A8956115710547
:1009200009F447C0442349F030910F02313029F4D3
:10093000A89530910F023111FBCF31E030930F02B7
:100940009093FA018093F9011092B6021092B502C9
:10095000109226027093F3016093F2013091AF027E
:10096000332399F0E091B002F091B10240813091CF
:1009700020023095342340915801411103C0409129
:10098000200201C040E0342B3083FC018081809341
:100990009C00EAE9F0E0808180628083222349F0B4
:1009A00080910F02813029F4A89580910F02811166
:1009B000FBCF089520E0B1CF0895DF92EF92FF9230
:1009C0000F931F93CF93DF93A895E0900002F090D0
:1009D000010240912B0250912C024E155F0508F048
:1009E000CFC06091130270911402A091F601B091F2
:1009F000F7010091030210910402DD24D394A8951D
:100A000080912A02882309F469C080912A028823F0
:100A100009F4B0C080E0A895FB01E40FF51FE08168
:100A2000282F30E0ED01C20FD31F9881E9134FC08A
:100A3000220F331FF801E20FF31F20813181232B96
:100A400009F54F5F5F4F5093560140935501109247
:100A500002028091B702813011F410920B02809152
:100A60002A02D0920C02D092FF012091B7029D2D54
:100A7000211190E090932702109216021092150215
:100A8000A70125C020813181E216F30601F54F5FF1
:100A90005F4F50935601409355011092020280918E
:100AA000B702813011F410920B0280912A02D09289
:100AB0000C02D092FF012091B7029D2D211190E0F0
:100AC000909327021092160210921502A7018F5FD1
:100AD00090912A02891708F49ECF4CC08091F801AA
:100AE000882341F1FB01E40FF51F908180910802FA
:100AF000981340C0CA010196909356018093550106
:100B0000109202028091B702813011F410920B0210
:100B100080912A02D0920C02D092FF019091B702EC
:100B20008D2D911180E08093270210921602109271
:100B3000150220C08091550190915601E816F906E2
:100B4000C8F0109202028091B702813011F4109225
:100B50000B0280912A02D0920C02D092FF01909158
:100B6000B7028D2D911180E080932702109216021A
:100B7000109215024F5F5F4F4E155F0508F43FCF8F
:100B8000F0922C02E0922B0290910C0281E09111E4
:100B900001C080E0DF91CF911F910F91FF90EF9006
:100BA000DF9008950F93A89531E030931F02909342
:100BB0001402809313021092560110925501609313
:100BC000080210922A02222321F0109201021092B0
:100BD00000025093EB014093EA0110920C02109234
:100BE000FF0181E08093F8011092570110922C02CE
:100BF00010922B02109202021092B402109216026E
:100C00001092150280930202809327020093B7028C
:100C100010921F020F910895FB01DC0102C00190A8
:100C20000D9241505040D8F70895BB274A3031F417
:100C3000992322F4BDE2909581959F4F01C0BB2777
:100C4000FB015527AA27880F991FAA1FA41710F088
:100C5000A41B83955051B9F7A05DAA3308F0A95D94
:100C6000A193009779F7B111B1931192CB0100C014
:100C7000DC01FC01672F71917723E1F7329704C003
:100C80007C916D9370836291AE17BF07C8F308958E
:040C9000F894FFCF06
:100C94000A0D000A0D504F574552204F4E21000AAD
:100CA4000D45585445524E414C21000A0D42524FB5
:100CB400554E204F555421000A0D574154434820A6
:100CC400444F4721000A0D4A54414721000A0D00B0
:0C0CD4000A0D436F756E7465723A2000C3
:00000001FF
