S01A000042415349435F4D3132385F554152546C69622E737265638F
S113000045C0000060C000005EC000005CC000008D
S11300105AC0000058C0000056C0000054C0000080
S113002052C00000B7C100004EC0000039C100003A
S11300304AC0000048C0000046C0000044C00000A0
S113004042C0000040C00000CAC2000046C2000016
S113005084C2000038C0000036C0000034C0000074
S113006032C0000030C000002EC000002CC00000D0
S11300702AC0000028C00000EBC3000064C30000D5
S1130080A5C3000020C000001EC0000011241FBE34
S1130090CFEFD0E1DEBFCDBF11E0A0E0B1E0EEE1F3
S11300A0FCE000E00BBF02C007900D92A034B10742
S11300B0D9F722E0A0E4B1E001C01D92AD3AB20745
S11300C0E1F711D0AAC59CCF98B381E0892788BBFA
S11300D0089598B382E0892788BB089598B384E093
S11300E0892788BB0895109247011092460110D1C8
S11300F004B600FE06C041E06BE070E083E091E0EE
S113010051D4A89504B601FE06C041E06BE070E04E
S11301108FE091E047D4A89504B602FE06C041E002
S11301206CE070E08BE191E03DD4A89504B603FE49
S113013006C041E06CE070E088E291E033D4A89519
S113014004B604FE06C041E067E070E085E391E098
S113015029D4A89541E062E070E08DE391E022D4D7
S113016014BE10921C028FEF87BB18BA82E08FBDB9
S11301708CE18EBD87B7806287BF80E291E097BD36
S113018086BD7894A89580911C02811110C080913D
S1130190070281110CC08091F701811108C001E0B0
S11301A021E040E850E06DE081E591E0F3D4FDD337
S11301B0A8958091F701882309F43DC080914F01EF
S11301C0882369F010921C0210924F011092F901D9
S11301D01092F8011092F70110920402A8958091F0
S11301E00402882331F140914D0150914E0161E5A3
S11301F071E082E292E008D5E0914D01F0914E0168
S1130200EE5DFD4F8091000190910101A0910201EA
S113021080839183A283E2E2F2E001900020E9F777
S11302203197BF016252724020E041E082E292E0E5
S11302306CD31092F701809144019091450101978C
S1130240B9F4809142019091430101969093430146
S113025080934201809140019091410101969093D5
S113026041018093400130DF109245011092440116
S11302708091420190914301059729F42ADF10925D
S113028043011092420180914001909141010A97EB
S113029009F078CF23DF109241011092400172CF10
S11302A01F920F920FB60F9211248F939F938091F8
S11302B04401909145010196909345018093440136
S11302C09F918F910F900FBE0F901F901895A89536
S11302D081E081BD08958FEF8ABB8BBB88BB87BB50
S11302E09FE795BB94BB12BA81BB83B982B9809353
S11302F0620080936100E5E6F0E08083809364000F
S1130300F0930202E093010281E080931D020895BC
S11303108F929F92AF92CF92EF920F93D8DFF8947F
S11303201CBE10926D00D7DFA8951F921F92812CDE
S1130330912C0F2EF8EFAF2EF02DC12C0F2EF7E0DD
S1130340EF2EF02D06E020E040E060E080E090E059
S1130350A2D1789415BE10926A001ABE19BE80E428
S113036087BF10927D0078940F900F900F91EF90BB
S1130370CF90AF909F908F90089515BC14BC87E4E4
S113038083BD8DE085BD87B7806887BF87B78E7FC3
S113039087BF08951F920F920FB60F9211242F93C7
S11303A03F938F939F9314BC80911302882319F178
S11303B08091100290911102892BE9F08091DD0166
S11303C09091DE0101969093DE018093DD012091EE
S11303D0DD013091DE018091100290911102281705
S11303E0390748F081E08093D80110920A02809383
S11303F0D701109213028091FE018823E9F08091C5
S1130400D5019091D60101969093D6018093D501A0
S11304102091D5013091D6018091E8019091E901B4
S11304202817390748F081E080934A0110920A02A4
S11304308093D7011092FE018091FA01882319F16B
S11304408091F3019091F401892BE9F080910D02E0
S113045090910E02019690930E0280930D022091CA
S11304600D0230910E028091F3019091F40128174E
S1130470390748F081E08093A90210921C0280930E
S1130480F7011092FA01809103028823E9F0809128
S1130490E0019091E10101969093E1018093E001E4
S11304A02091E0013091E1018091A2029091A30298
S11304B02817390748F081E08093080210921C0243
S11304C08093F701109203029F918F913F912F9196
S11304D00F900FBE0F901F9018951F920F920FB69A
S11304E00F9211240BB60F922F933F938F939F93E8
S11304F0EF93FF93A8958091190290911A020196A7
S113050090931A02809319022091190230911A02D1
S11305108091F5019091F6012817390729F49AB1D1
S113052080E289278AB90CC08091190290911A023D
S1130530E091E401F091E501E80FF91F80818CB9A5
S1130540FF91EF919F918F913F912F910F900BBE4F
S11305500F900FBE0F901F9018951F920F920FB619
S11305600F9211240BB60F922F933F938F939F9367
S1130570EF93FF93A8952091190230911A0280916C
S1130580F5019091F60128173907E1F481E0809391
S113059014021092D30180910902882399F0E0910A
S11305A0D901F091DA01908180910F02809589231D
S11305B090910502992319F090910F0201C090E0E7
S11305C0892B8083FF91EF919F918F913F912F9180
S11305D00F900BBE0F900FBE0F901F9018951F9297
S11305E00F920FB60F9211240BB60F922F933F93D5
S11305F08F939F93EF93FF9381E08093FE0110927A
S1130600D6011092D501A8958CB180931E028091D9
S11306100A02882399F18091E6019091E701E09123
S1130620DB01F091DC01E80FF91F80911E02808349
S11306302091E6013091E7018091EC019091ED0168
S11306402817390750F48091E6019091E70101964B
S11306509093E7018093E60111C08091EC019091A1
S1130660ED019093E7018093E60181E08093DF013F
S113067010920A028093D70110921302FF91EF9116
S11306809F918F913F912F910F900BBE0F900FBEB2
S11306900F901F9018958F929F92AF92CF92EF92E6
S11306A00F93CF93DF93CDB7DEB7E4EDF1E0F09392
S11306B00C02E0930B021092F9011092F8011092CF
S11306C04E0110924D01E1E0F0E0F093E301E0937C
S11306D0E201EAE9F0E0108220939B0000939D0080
S11306E0E0929900C0929800A0829092F4018092C6
S11306F0F3012B853C853093A3022093A202109230
S11307000702308120E223272083009781F0909311
S1130710A6028093A502FC018291862B80836093BC
S113072018024093500181E08093A40202C0109209
S1130730A40223DEDF91CF910F91EF90CF90AF9081
S11307409F908F9008951F920F920FB60F921124CD
S11307500BB60F922F933F938F939F93EF93FF9337
S1130760A8958091AA029091AB0201969093AB0256
S11307708093AA022091AA023091AB028091EA01EF
S11307809091EB012817390739F4EAE9F0E09081F8
S113079080E2892780830DC08091AA029091AB02E8
S11307A0E091F101F091F201E80FF91F808180934B
S11307B09C00FF91EF919F918F913F912F910F900A
S11307C00BBE0F900FBE0F901F9018951F920F92A3
S11307D00FB60F9211240BB60F922F933F938F9362
S11307E09F93EF93FF93A8952091AA023091AB02B7
S11307F08091EA019091EB0128173907E1F481E037
S113080080931B02109207028091A402882399F01E
S1130810E091A502F091A602908180911802809542
S1130820892390915001992319F09091180201C0E5
S113083090E0892B8083FF91EF919F918F913F915D
S11308402F910F900BBE0F900FBE0F901F90189515
S11308501F920F920FB60F9211240BB60F922F9383
S11308603F938F939F93EF93FF9381E080930302D1
S11308701092E1011092E001A89580919C00809370
S1130880D40180911C02882399F18091F801909100
S1130890F901E0910B02F0910C02E80FF91F80912D
S11308A0D40180832091F8013091F9018091E20113
S11308B09091E3012817390750F48091F801909141
S11308C0F90101969093F9018093F80111C0809188
S11308D0E2019091E3019093F9018093F80181E0A2
S11308E080934F0110921C028093F7011092FA0139
S11308F0FF91EF919F918F913F912F910F900BBE9C
S11309000F900FBE0F901F901895A8956115710553
S113091009F447C0442349F030910702313029F4E7
S1130920A895309107023111FBCF31E030930702D3
S11309309093F2018093F1011092AB021092AA02FB
S113094010921B027093EB016093EA013091A402B0
S1130950332399F0E091A502F091A60240813091F1
S113096018023095342340915001411103C0409145
S1130970180201C040E0342B3083FC018081809355
S11309809C00EAE9F0E0808180628083222349F0C0
S113099080910702813029F4A89580910702811182
S11309A0FBCF089520E0B1CF0895DF92EF92FF923C
S11309B00F931F93CF93DF93A895E090F801F090E5
S11309C0F90140912002509121024E155F0508F073
S11309D0CFC060910B0270910C02A091EE01B09116
S11309E0EF010091FB011091FC01DD24D394A89543
S11309F080911F02882309F469C080911F02882313
S1130A0009F4B0C080E0A895FB01E40FF51FE08174
S1130A10282F30E0ED01C20FD31F9881E9134FC096
S1130A20220F331FF801E20FF31F20813181232BA2
S1130A3009F54F5F5F4F50934E0140934D01109263
S1130A40FA018091AC02813011F41092030280917A
S1130A501F02D0920402D092F7012091AC029D2D86
S1130A60211190E090931C0210920E0210920D023C
S1130A70A70125C020813181E216F30601F54F5FFD
S1130A805F4F50934E0140934D011092FA018091B3
S1130A90AC02813011F41092030280911F02D092B3
S1130AA00402D092F7012091AC029D2D211190E017
S1130AB090931C0210920E0210920D02A7018F5FF8
S1130AC090911F02891708F49ECF4CC08091F001C9
S1130AD0882341F1FB01E40FF51F9081809100020E
S1130AE0981340C0CA01019690934E0180934D0122
S1130AF01092FA018091AC02813011F41092030239
S1130B0080911F02D0920402D092F7019091AC021E
S1130B108D2D911180E080931C0210920E02109290
S1130B200D0220C080914D0190914E01E816F90606
S1130B30C8F01092FA018091AC02813011F4109245
S1130B40030280911F02D0920402D092F701909187
S1130B50AC028D2D911180E080931C0210920E0244
S1130B6010920D024F5F5F4F4E155F0508F43FCFA3
S1130B70F0922102E09220029091040281E091110E
S1130B8001C080E0DF91CF911F910F91FF90EF9012
S1130B90DF9008950F93A89531E030931702909356
S1130BA00C0280930B0210924E0110924D0160933F
S1130BB0000210921F02222321F01092F9011092D8
S1130BC0F8015093E3014093E20110920402109261
S1130BD0F70181E08093F00110924F0110922102FD
S1130BE0109220021092FA011092A90210920E02A1
S1130BF010920D028093FA0180931C020093AC02C0
S1130C00109217020F910895FB01DC0102C00190BC
S1110C100D9241505040D8F70895F894FFCF4C
S1130C1E0A0D000A0D504F574552204F4E21000A1F
S1130C2E0D45585445524E414C21000A0D42524F27
S1130C3E554E204F555421000A0D57415443482018
S1130C4E444F4721000A0D4A54414721000A0D0022
S9030000FC
